{
  "_format": "hh-sol-artifact-1",
  "contractName": "DIDRegistry",
  "sourceName": "contracts/DIDRegistry.sol",
  "abi": [
    {
      "inputs": [],
      "stateMutability": "nonpayable",
      "type": "constructor"
    },
    {
      "inputs": [
        {
          "internalType": "address",
          "name": "owner",
          "type": "address"
        }
      ],
      "name": "OwnableInvalidOwner",
      "type": "error"
    },
    {
      "inputs": [
        {
          "internalType": "address",
          "name": "account",
          "type": "address"
        }
      ],
      "name": "OwnableUnauthorizedAccount",
      "type": "error"
    },
    {
      "anonymous": false,
      "inputs": [
        {
          "indexed": true,
          "internalType": "address",
          "name": "user",
          "type": "address"
        },
        {
          "indexed": false,
          "internalType": "bytes32",
          "name": "uniquePersonID",
          "type": "bytes32"
        },
        {
          "indexed": false,
          "internalType": "uint8",
          "name": "level",
          "type": "uint8"
        }
      ],
      "name": "DIDRegistered",
      "type": "event"
    },
    {
      "anonymous": false,
      "inputs": [
        {
          "indexed": true,
          "internalType": "address",
          "name": "user",
          "type": "address"
        }
      ],
      "name": "DIDRevoked",
      "type": "event"
    },
    {
      "anonymous": false,
      "inputs": [
        {
          "indexed": true,
          "internalType": "address",
          "name": "previousOwner",
          "type": "address"
        },
        {
          "indexed": true,
          "internalType": "address",
          "name": "newOwner",
          "type": "address"
        }
      ],
      "name": "OwnershipTransferred",
      "type": "event"
    },
    {
      "inputs": [
        {
          "internalType": "address",
          "name": "",
          "type": "address"
        }
      ],
      "name": "didRegistry",
      "outputs": [
        {
          "internalType": "bytes32",
          "name": "uniquePersonID",
          "type": "bytes32"
        },
        {
          "internalType": "uint8",
          "name": "sybilResistanceLevel",
          "type": "uint8"
        },
        {
          "internalType": "bool",
          "name": "identityValid",
          "type": "bool"
        },
        {
          "internalType": "uint256",
          "name": "timestamp",
          "type": "uint256"
        }
      ],
      "stateMutability": "view",
      "type": "function"
    },
    {
      "inputs": [
        {
          "internalType": "address",
          "name": "_user",
          "type": "address"
        }
      ],
      "name": "getDIDStatus",
      "outputs": [
        {
          "internalType": "bool",
          "name": "isValid",
          "type": "bool"
        },
        {
          "internalType": "uint8",
          "name": "level",
          "type": "uint8"
        }
      ],
      "stateMutability": "view",
      "type": "function"
    },
    {
      "inputs": [],
      "name": "owner",
      "outputs": [
        {
          "internalType": "address",
          "name": "",
          "type": "address"
        }
      ],
      "stateMutability": "view",
      "type": "function"
    },
    {
      "inputs": [
        {
          "internalType": "bytes32",
          "name": "",
          "type": "bytes32"
        }
      ],
      "name": "personIdToAddress",
      "outputs": [
        {
          "internalType": "address",
          "name": "",
          "type": "address"
        }
      ],
      "stateMutability": "view",
      "type": "function"
    },
    {
      "inputs": [
        {
          "internalType": "bytes32",
          "name": "_uniquePersonID",
          "type": "bytes32"
        },
        {
          "internalType": "uint8",
          "name": "_sybilResistanceLevel",
          "type": "uint8"
        }
      ],
      "name": "registerDID",
      "outputs": [],
      "stateMutability": "nonpayable",
      "type": "function"
    },
    {
      "inputs": [],
      "name": "renounceOwnership",
      "outputs": [],
      "stateMutability": "nonpayable",
      "type": "function"
    },
    {
      "inputs": [
        {
          "internalType": "address",
          "name": "_user",
          "type": "address"
        }
      ],
      "name": "revokeDID",
      "outputs": [],
      "stateMutability": "nonpayable",
      "type": "function"
    },
    {
      "inputs": [
        {
          "internalType": "address",
          "name": "newOwner",
          "type": "address"
        }
      ],
      "name": "transferOwnership",
      "outputs": [],
      "stateMutability": "nonpayable",
      "type": "function"
    }
  ],
  "bytecode": "0x608060405234801561001057600080fd5b5033600073ffffffffffffffffffffffffffffffffffffffff168173ffffffffffffffffffffffffffffffffffffffff16036100845760006040517f1e4fbdf700000000000000000000000000000000000000000000000000000000815260040161007b919061019e565b60405180910390fd5b6100938161009960201b60201c565b506101b9565b60008060009054906101000a900473ffffffffffffffffffffffffffffffffffffffff169050816000806101000a81548173ffffffffffffffffffffffffffffffffffffffff021916908373ffffffffffffffffffffffffffffffffffffffff1602179055508173ffffffffffffffffffffffffffffffffffffffff168173ffffffffffffffffffffffffffffffffffffffff167f8be0079c531659141344cd1fd0a4f28419497f9722a3daafe3b4186f6b6457e060405160405180910390a35050565b600073ffffffffffffffffffffffffffffffffffffffff82169050919050565b60006101888261015d565b9050919050565b6101988161017d565b82525050565b60006020820190506101b3600083018461018f565b92915050565b610e51806101c86000396000f3fe608060405234801561001057600080fd5b50600436106100885760003560e01c806395ad89181161005b57806395ad891814610104578063c3b5045f14610134578063e036a27914610165578063f2fde38b1461018157610088565b80631775df091461008d5780631b5fa4cb146100c0578063715018a6146100dc5780638da5cb5b146100e6575b600080fd5b6100a760048036038101906100a29190610a3e565b61019d565b6040516100b79493929190610ad4565b60405180910390f35b6100da60048036038101906100d59190610b71565b6101e7565b005b6100e46104d4565b005b6100ee6104e8565b6040516100fb9190610bc0565b60405180910390f35b61011e60048036038101906101199190610bdb565b610511565b60405161012b9190610bc0565b60405180910390f35b61014e60048036038101906101499190610a3e565b610544565b60405161015c929190610c08565b60405180910390f35b61017f600480360381019061017a9190610a3e565b6105f0565b005b61019b60048036038101906101969190610a3e565b610802565b005b60016020528060005260406000206000915090508060000154908060010160009054906101000a900460ff16908060010160019054906101000a900460ff16908060020154905084565b600160003373ffffffffffffffffffffffffffffffffffffffff1673ffffffffffffffffffffffffffffffffffffffff16815260200190815260200160002060010160019054906101000a900460ff1615610277576040517f08c379a000000000000000000000000000000000000000000000000000000000815260040161026e90610c8e565b60405180910390fd5b600073ffffffffffffffffffffffffffffffffffffffff166002600084815260200190815260200160002060009054906101000a900473ffffffffffffffffffffffffffffffffffffffff1673ffffffffffffffffffffffffffffffffffffffff1614610319576040517f08c379a000000000000000000000000000000000000000000000000000000000815260040161031090610cfa565b60405180910390fd5b60018160ff1610158015610331575060058160ff1611155b610370576040517f08c379a000000000000000000000000000000000000000000000000000000000815260040161036790610d66565b60405180910390fd5b60405180608001604052808381526020018260ff16815260200160011515815260200142815250600160003373ffffffffffffffffffffffffffffffffffffffff1673ffffffffffffffffffffffffffffffffffffffff1681526020019081526020016000206000820151816000015560208201518160010160006101000a81548160ff021916908360ff16021790555060408201518160010160016101000a81548160ff02191690831515021790555060608201518160020155905050336002600084815260200190815260200160002060006101000a81548173ffffffffffffffffffffffffffffffffffffffff021916908373ffffffffffffffffffffffffffffffffffffffff1602179055503373ffffffffffffffffffffffffffffffffffffffff167f87a35cdc11d2b2889327793228b25ad0541f9055fb41f4d3bc7f767364996ba083836040516104c8929190610d86565b60405180910390a25050565b6104dc610888565b6104e6600061090f565b565b60008060009054906101000a900473ffffffffffffffffffffffffffffffffffffffff16905090565b60026020528060005260406000206000915054906101000a900473ffffffffffffffffffffffffffffffffffffffff1681565b600080600160008473ffffffffffffffffffffffffffffffffffffffff1673ffffffffffffffffffffffffffffffffffffffff16815260200190815260200160002060010160019054906101000a900460ff16600160008573ffffffffffffffffffffffffffffffffffffffff1673ffffffffffffffffffffffffffffffffffffffff16815260200190815260200160002060010160009054906101000a900460ff1691509150915091565b6105f8610888565b600160008273ffffffffffffffffffffffffffffffffffffffff1673ffffffffffffffffffffffffffffffffffffffff16815260200190815260200160002060010160019054906101000a900460ff16610687576040517f08c379a000000000000000000000000000000000000000000000000000000000815260040161067e90610dfb565b60405180910390fd5b6000600160008373ffffffffffffffffffffffffffffffffffffffff1673ffffffffffffffffffffffffffffffffffffffff1681526020019081526020016000206000015490506002600082815260200190815260200160002060006101000a81549073ffffffffffffffffffffffffffffffffffffffff02191690556000600160008473ffffffffffffffffffffffffffffffffffffffff1673ffffffffffffffffffffffffffffffffffffffff16815260200190815260200160002060010160016101000a81548160ff0219169083151502179055506000600160008473ffffffffffffffffffffffffffffffffffffffff1673ffffffffffffffffffffffffffffffffffffffff16815260200190815260200160002060010160006101000a81548160ff021916908360ff1602179055508173ffffffffffffffffffffffffffffffffffffffff167fa0ff60c04be63f3cf32a661849abeec287a06df9820b4d6ba7d49853d3de3c5260405160405180910390a25050565b61080a610888565b600073ffffffffffffffffffffffffffffffffffffffff168173ffffffffffffffffffffffffffffffffffffffff160361087c5760006040517f1e4fbdf70000000000000000000000000000000000000000000000000000000081526004016108739190610bc0565b60405180910390fd5b6108858161090f565b50565b6108906109d3565b73ffffffffffffffffffffffffffffffffffffffff166108ae6104e8565b73ffffffffffffffffffffffffffffffffffffffff161461090d576108d16109d3565b6040517f118cdaa70000000000000000000000000000000000000000000000000000000081526004016109049190610bc0565b60405180910390fd5b565b60008060009054906101000a900473ffffffffffffffffffffffffffffffffffffffff169050816000806101000a81548173ffffffffffffffffffffffffffffffffffffffff021916908373ffffffffffffffffffffffffffffffffffffffff1602179055508173ffffffffffffffffffffffffffffffffffffffff168173ffffffffffffffffffffffffffffffffffffffff167f8be0079c531659141344cd1fd0a4f28419497f9722a3daafe3b4186f6b6457e060405160405180910390a35050565b600033905090565b600080fd5b600073ffffffffffffffffffffffffffffffffffffffff82169050919050565b6000610a0b826109e0565b9050919050565b610a1b81610a00565b8114610a2657600080fd5b50565b600081359050610a3881610a12565b92915050565b600060208284031215610a5457610a536109db565b5b6000610a6284828501610a29565b91505092915050565b6000819050919050565b610a7e81610a6b565b82525050565b600060ff82169050919050565b610a9a81610a84565b82525050565b60008115159050919050565b610ab581610aa0565b82525050565b6000819050919050565b610ace81610abb565b82525050565b6000608082019050610ae96000830187610a75565b610af66020830186610a91565b610b036040830185610aac565b610b106060830184610ac5565b95945050505050565b610b2281610a6b565b8114610b2d57600080fd5b50565b600081359050610b3f81610b19565b92915050565b610b4e81610a84565b8114610b5957600080fd5b50565b600081359050610b6b81610b45565b92915050565b60008060408385031215610b8857610b876109db565b5b6000610b9685828601610b30565b9250506020610ba785828601610b5c565b9150509250929050565b610bba81610a00565b82525050565b6000602082019050610bd56000830184610bb1565b92915050565b600060208284031215610bf157610bf06109db565b5b6000610bff84828501610b30565b91505092915050565b6000604082019050610c1d6000830185610aac565b610c2a6020830184610a91565b9392505050565b600082825260208201905092915050565b7f44494420616c7265616479206578697374730000000000000000000000000000600082015250565b6000610c78601283610c31565b9150610c8382610c42565b602082019050919050565b60006020820190508181036000830152610ca781610c6b565b9050919050565b7f506572736f6e20494420616c7265616479207265676973746572656400000000600082015250565b6000610ce4601c83610c31565b9150610cef82610cae565b602082019050919050565b60006020820190508181036000830152610d1381610cd7565b9050919050565b7f496e76616c6964206c6576656c00000000000000000000000000000000000000600082015250565b6000610d50600d83610c31565b9150610d5b82610d1a565b602082019050919050565b60006020820190508181036000830152610d7f81610d43565b9050919050565b6000604082019050610d9b6000830185610a75565b610da86020830184610a91565b9392505050565b7f444944206e6f742076616c696400000000000000000000000000000000000000600082015250565b6000610de5600d83610c31565b9150610df082610daf565b602082019050919050565b60006020820190508181036000830152610e1481610dd8565b905091905056fea26469706673582212207390039594088a4c7926a51bb2ec86fa3a7080c5cb3d4f9fc3bcb399afb6fb8e64736f6c63430008140033",
  "linkReferences": {},
  "deployedLinkReferences": {}
}